:020000040000FA
:040000008FEF2CF062
:1058E4001200080ED56ED58E120044C001F045C0DA
:1058F40002F01200F2A481EF2CF083EF2CF07CEF85
:105904002CF01200016E9EA88AEF2CF08CEF2CF084
:1059140085EF2CF001C0ADFF120000EE36F01C0E36
:10592400EE6AE806FDE1000EF86E000127EF31F0A3
:105934002C0EAC6E900EAB6E080EB86E000EB06EF0
:10594400220EAF6E948C948E12000E6E000E0B6EAF
:10595400000E0A6E0E50E0EC2EF0000E026E020EE7
:10596400016E3EEC2DF012000E6E000E0B6E010E59
:105974000A6E0E50E0EC2EF0000E026E500E016E18
:1059840072EC2CF01200D8900134036E0234046ED1
:10599400031E041E320E035E000E045A0450D76E1A
:1059A40003C0D6FFF29412000C6E0CC007F0086A14
:1059B4000FEC2EF0000E026E1D0E016E0AC003F0F5
:1059C4000BC004F00EEC38F0CAEC2DF01200000EFF
:1059D400236E000EB4EC2EF0010E236E000EB4EC18
:1059E4002EF0020E236E000EB4EC2EF0030E236E86
:1059F400000EB4EC2EF01200000E026E080E016EC2
:105A0400000E046E010E036E0EEC38F0000E026EF2
:105A1400080E016E000E046E000E036E0EEC38F0DC
:105A24001200000E026E1F0E016E000E046E010EB7
:105A3400036E0EEC38F0000E026E1F0E016E000EA7
:105A4400046E000E036E0EEC38F01200000E016EB0
:105A5400ABA22FEF2DF031EF2DF033EF2DF0AB98FB
:105A6400AB889EAA38EF2DF03AEF2DF03CEF2DF0E5
:105A7400AECF01F001501200000E056E000E046E50
:105A840046EF2DF0044A052A0150045C0550800AB3
:105A9400036E0250800A0358D8A053EF2DF055EF3F
:105AA4002DF044EF2DF012008CEC2DF0000E026E60
:105AB4000A0E016E000E046E010E036EE7EC36F062
:105AC400000E026E090E016E000E046E010E036ECE
:105AD400E7EC36F00C0EC16E12000F501010D8A473
:105AE40076EF2DF078EF2DF07DEF2DF011500F0BA8
:105AF400800FA7EC2CF00F041010D8A484EF2DF025
:105B040086EF2DF08BEF2DF011500F0BC00FA7EC8B
:105B14002CF01200000E026E1F0E016E000E046EB9
:105B2400000E036EE7EC36F0000E026E080E016EF6
:105B3400000E046E000E036EE7EC36F0000E026EEB
:105B44001E0E016E000E046E000E036EE7EC36F0BE
:105B54001200000E026E180E016E000E046E000E8E
:105B6400036EE7EC36F0000E026E190E016E000EA5
:105B7400046E000E036EE7EC36F0000E026E1A0E91
:105B8400016E000E046E000E036EE7EC36F0120098
:105B9400000E026E1C0E016E000E046E010E036EEA
:105BA4000EEC38F0000E026E050E016E72EC2CF055
:105BB400000E026E1C0E016E000E046E000E036ECB
:105BC4000EEC38F0000E026E050E016E72EC2CF035
:105BD4001200000E026E000E016E000E046E010E25
:105BE400036EE7EC36F0000E026E010E016E000E3D
:105BF400046E010E036EE7EC36F0000E026E020E28
:105C0400016E000E046E010E036EE7EC36F0C280E6
:105C14000C0EC16EAA0EC06E1200000E026E080EAB
:105C2400016E000E046E000E036E0EEC38F0000ED2
:105C3400096E000E026E1E0E016E800E0714036EB6
:105C4400046A0EEC38F0FEEC2CF0D89007360836D7
:105C5400092A070E096431EF2EF033EF2EF01BEF03
:105C64002EF013EC2DF01200C30EC216025007E101
:105C7400030E015CD8B041EF2EF043EF2EF047EF56
:105C84002EF00144E846FC0BC212C282C2B24DEFB0
:105C94002EF04FEF2EF048EF2EF0C4CF03F0046A3D
:105CA4000350046E036AC3500326000E042203C08B
:105CB40001F004C002F01200000E146E000E136E08
:105CC40074EF2EF013500F24116E14501020126E26
:105CD40011C0F6FF12C0F7FF0800F550B6EC2CF027
:105CE400134A142A13500F24116E14501020126EEC
:105CF40011C0F6FF12C0F7FF0800F5500009D8A440
:105D040086EF2EF088EF2EF064EF2EF01200000ED6
:105D1400026E180E016E000E046E000E036EE7ECA8
:105D240036F0000E026E190E016E000E046E000EA7
:105D3400036EE7EC36F0000E026E1A0E016E000ED2
:105D4400046E000E036EE7EC36F0000E026E1B0EBE
:105D5400016E000E046E000E036EE7EC36F08CEC60
:105D64002DF01200246E2350D8A4BBEF2EF0BDEF0B
:105D74002EF0BFEF2EF024C04AF02304D8A4C5EFC0
:105D84002EF0C7EF2EF0C9EF2EF024C049F0020E1A
:105D94002318D8A4D0EF2EF0D2EF2EF0D4EF2EF0AB
:105DA40024C048F0030E2318D8A4DBEF2EF0DDEF57
:105DB4002EF0DFEF2EF024C047F012000D6E0DC060
:105DC4000CF00C3A0F0E0C160C50076E086A0FEC10
:105DD4002EF0000E026E1D0E016E0AC003F00BC001
:105DE40004F00EEC38F0CAEC2DF00DC00CF00F0EE0
:105DF4000C160C50076E086A0FEC2EF0000E026EA3
:105E04001D0E016E0AC003F00BC004F00EEC38F056
:105E1400CAEC2DF0120007A012EF2FF014EF2FF0B0
:105E24001EEF2FF0000E026E180E016E000E046EAF
:105E3400000E036E0EEC38F007A223EF2FF025EFCF
:105E44002FF02FEF2FF0000E026E190E016E000ED0
:105E5400046E000E036E0EEC38F007A434EF2FF03E
:105E640036EF2FF040EF2FF0000E026E1A0E016E87
:105E7400000E046E000E036E0EEC38F0120007A044
:105E840046EF2FF048EF2FF052EF2FF0000E026E86
:105E9400180E016E000E046E010E036E0EEC38F047
:105EA40007A257EF2FF059EF2FF063EF2FF0000EFA
:105EB400026E190E016E000E046E010E036E0EECDE
:105EC40038F007A468EF2FF06AEF2FF074EF2FF08B
:105ED400000E026E1A0E016E000E046E010E036EA9
:105EE4000EEC38F01200000E096E000E0A6E000E61
:105EF4000B6E000E0C6E01A082EF2FF084EF2FF0DA
:105F04008CEF2FF00550092606500A2207500B2269
:105F140008500C22D8900536063607360836D89035
:105F24000432033202320132015002100310041011
:105F3400D8A49FEF2FF0A1EF2FF07DEF2FF009C031
:105F440001F00AC002F00BC003F00CC004F0120010
:105F5400000E056E000E046E04C001F0010E026E08
:105F6400000E036E012ABAEF2FF0D89002360336E2
:105F7400012EB7EF2FF0445002164550031602507D
:105F84000310D8B4C8EF2FF0CAEF2FF0D4EF2FF0DE
:105F9400EF0E0424F66E7E0E0520F76E0800F55011
:105FA400E5EF2FF0044A052A05BEE2EF2FF0055075
:105FB40009E10A0E045CD8A0E2EF2FF0E4EF2FF021
:105FC400AEEF2FF0000E12001E501F1020102110F3
:105FD400D8B4EFEF2FF0F1EF2FF021EF30F0010EF6
:105FE400226EFBEF2FF0D8901E361F362036213656
:105FF400222A21AE00EF30F002EF30F0F5EF2FF05F
:106004001E501A5C1F501B5820501C5821501D58FC
:10601400D8A00FEF30F011EF30F019EF30F01E5030
:106024001A5E1F501B5A20501C5A21501D5AD890DA
:10603400213220321F321E32222E02EF30F01AC0DB
:106044001AF01BC01BF01CC01CF01DC01DF0120078
:106054004EC001F04FC002F050C003F051C004F034
:10606400C80E056E000E066E000E076E000E086E5A
:1060740075EC2FF001C00DF002C00EF003C00FF05C
:1060840004C010F0140E116E040E126E000E136E86
:10609400000E146E7BEC30F00DC036F00EC037F0FD
:1060A4000FC038F010C039F036503A5C37503B58C6
:1060B40038503C5839503D58D8B063EF30F065EF54
:1060C40030F069EF30F0A3EC32F07AEF30F03A5070
:1060D400365C3B5037583C5038583D503958D8B04E
:1060E40076EF30F078EF30F07AEF30F0E9EC2CF026
:1060F4001200000E156E000E166E000E176E000EC6
:10610400186E1150121013101410D8B48CEF30F014
:106114008EEF30F0C4EF30F0010E196E98EF30F0CE
:10612400D8901136123613361436192A14AE9DEF50
:1061340030F09FEF30F092EF30F0D89015361636ED
:106144001736183611500D5C12500E5813500F5854
:1061540014501058D8A0B1EF30F0B3EF30F0BCEFCA
:1061640030F011500D5E12500E5A13500F5A145045
:10617400105A1580D8901432133212321132192E5B
:106184009FEF30F015C00DF016C00EF017C00FF0E1
:1061940018C010F01200000E026E1C0E016E000EEC
:1061A400046E000E036EE7EC36F0000E026E1D0E58
:1061B400016E000E046E000E036EE7EC36F08CECFC
:1061C4002DF0000E026E0F0E016E3EEC2DF0000E4F
:1061D4000B6E000E0A6E030ED6EC2CF0000E026E4F
:1061E400050E016E3EEC2DF0000E0B6E000E0A6ED5
:1061F400030ED6EC2CF0000E026EA00E016E72ECB3
:106204002CF0000E0B6E000E0A6E030ED6EC2CF072
:10621400000E026EA00E016E72EC2CF0000E0B6EDE
:10622400000E0A6E020ED6EC2CF0000E026E0A0E60
:10623400016E3EEC2DF0280EA7EC2CF00C0EA7EC12
:106244002CF0010EA7EC2CF01200CDEC30F056EC43
:106254002DF089EC2EF073EC2CF09AEC2CF0EBEC96
:106264002DF0ABEC2DF0370E0F6E7F0E106E5EEC42
:106274002EF0130E026E880E016EC5EC2CF063EF47
:1062840031F035EC39F0FBEC33F0010E356E80EF74
:1062940031F00AEC3BF0020E356E80EF31F0B1ECD8
:1062A40034F0030E356E80EF31F02AEC30F0FBEC65
:1062B40033F0040E356E80EF31F0000E356E80EF52
:1062C40031F03550336E346A3450000AD8B46DEF6F
:1062D40031F05FEF31F03350000AD8B443EF31F0BE
:1062E400010AD8B44BEF31F0030AD8B451EF31F0BE
:1062F400010AD8B457EF31F05FEF31F07CEC2CF0A9
:106304003BEF31F000EF00F0000E0114096E000EB7
:1063140002140A6E800E03140B6E7F0E04140C6EAE
:1063240009500A100B100C10D8A49BEF31F09DEF0C
:1063340031F0A5EF31F0000E016E000E026E000E7A
:10634400036E000E046E000E0514096E000E061492
:106354000A6E800E07140B6E7F0E08140C6E095023
:106364000A100B100C10D8A4BAEF31F0BCEF31F0C6
:10637400C4EF31F0000E056E000E066E000E076EBF
:10638400000E086E04AEC9EF31F0CBEF31F0D4EF5C
:1063940031F0016C021ED8B0022A031ED8B0032AC1
:1063A400800E045608AED9EF31F0DBEF31F0E4EFA4
:1063B40031F0056C061ED8B0062A071ED8B0072A8D
:1063C400800E0856000E011A000E021A000E031A5F
:1063D400800E041A000E051A000E061A000E071A83
:1063E400800E081A0550015C0650025807500358E5
:1063F40008500458D8B001EF32F003EF32F006EF42
:1064040032F0D89007EF32F0D8801200000E436EBD
:10641400000E426E000E0E6E000E0D6E0EBE1CEFD0
:1064240032F00E5009E1050E0D5CD8A01CEF32F0DD
:106434001EEF32F020EF32F081EF32F00DC00AF09F
:10644400030E0A26010E0B6E000E0C6E0A2A2EEFA6
:1064540032F0D8900B360C360A2E2BEF32F00BC0EC
:1064640007F00CC008F00FEC2EF0000E026E0A0EBE
:10647400016E46EC33F001500210D8B444EF32F010
:1064840046EF32F059EF32F00DC00AF0010E0B6EF8
:10649400000E0C6E0A2A52EF32F0D8900B360C36EE
:1064A4000A2E4FEF32F00B5042120C504312000EE2
:1064B400026E090E016E46EC33F001500210D8B49E
:1064C40066EF32F068EF32F07DEF32F00DC00AF083
:1064D400050E0A26010E0B6E000E0C6E0A2A76EFCC
:1064E40032F0D8900B360C360A2E73EF32F00B5084
:1064F40042120C5043120D4A0E2A10EF32F0425051
:10650400401807E143504118D8A48BEF32F08DEFC7
:1065140032F090EF32F04C0696EF32F0010E4C6EF2
:1065240042C040F043C041F04C50D8A49CEF32F03C
:106534009EEF32F0A2EF32F040C044F041C045F08B
:106544001200E80E116E030E126E000E136E000E92
:10655400146E3AC00DF03BC00EF03CC00FF03DC0CD
:1065640010F07BEC30F00DC01AF00EC01BF00FC021
:106574001CF010C01DF00A0E1E6E000E1F6E000EE1
:10658400206E000E216EE6EC2FF01AC025F01BC021
:1065940026F0640E116E000E126E000E136E000EC5
:1065A400146E3AC00DF03BC00EF03CC00FF03DC07D
:1065B40010F07BEC30F00DC01AF00EC01BF00FC0D1
:1065C4001CF010C01DF00A0E1E6E000E1F6E000E91
:1065D400206E000E216EE6EC2FF01AC027F01BC0CF
:1065E40028F00A0E116E000E126E000E136E000ECD
:1065F400146E3AC00DF03BC00EF03CC00FF03DC02D
:1066040010F07BEC30F00DC01AF00EC01BF00FC080
:106614001CF010C01DF00A0E1E6E000E1F6E000E40
:10662400206E000E216EE6EC2FF01AC029F01BC07C
:106634002AF03AC01AF03BC01BF03CC01CF03DC02D
:106644001DF00A0E1E6E000E1F6E000E206E000E50
:10665400216EE6EC2FF01AC02BF01BC02CF0000EBC
:10666400236E2550B4EC2EF0010E236E2750B4ECAB
:106674002EF0020E236E2950B4EC2EF0030E236E7E
:106684002B50B4EC2EF0120002BE54EF33F0025043
:1066940007E1080E015CD8B052EF33F054EF33F049
:1066A40068EF33F001C003F0010E046E032A5DEFBE
:1066B40033F0D8900436032E5BEF33F0045080148B
:1066C400056E0550016E026AFAEF33F002BE76EFF2
:1066D40033F0025007E1100E015CD8B074EF33F0D0
:1066E40076EF33F08CEF33F001C003F0F80E03269D
:1066F400010E046E032A81EF33F0D8900436032E82
:106704007FEF33F004508114056E0550016E026A68
:10671400FAEF33F002BE9AEF33F0025007E1180E9D
:10672400015CD8B098EF33F09AEF33F0B0EF33F068
:1067340001C003F0F00E0326010E046E032AA5EF38
:1067440033F0D8900436032EA3EF33F004508214B0
:10675400056E0550016E026AFAEF33F002BEBEEF19
:1067640033F0025007E1200E015CD8B0BCEF33F0E7
:10677400BEEF33F0D4EF33F001C003F0E80E03268C
:10678400010E046E032AC9EF33F0D8900436032EA9
:10679400C7EF33F004508314056E0550016E026A8E
:1067A400FAEF33F002BEE2EF33F0025007E1280EB5
:1067B400015CD8B0E0EF33F0E2EF33F0F8EF33F000
:1067C40001C003F0E00E0326010E046E032AEDEF70
:1067D40033F0D8900436032EEBEF33F004508414D6
:1067E400056E0550016E026AFAEF33F00168026823
:1067F4001200000E026E180E016E000E046E000EE2
:10680400036E0EEC38F0000E026E190E016E000ECF
:10681400046E000E036E0EEC38F0000E026E1A0EBB
:10682400016E000E046E000E036E0EEC38F0000EC6
:10683400026E1B0E016E000E046E000E036E0EEC53
:1068440038F0000E086E000E076E0FEC2EF093EF7A
:1068540034F0DF0E4A24F66EF76A7E0EF722080043
:10686400F550076E086A0FEC2EF0000E026E180E3B
:10687400016E000E046E010E036E0EEC38F0010E74
:106884004B6EB0EF34F0DF0E4924F66EF76A7E0EDD
:10689400F7220800F550076E086A0FEC2EF0000E80
:1068A400026E190E016E000E046E010E036E0EECE4
:1068B40038F0020E4B6EB0EF34F0DF0E4824F66E63
:1068C400F76A7E0EF7220800F550076E086A0FEC8F
:1068D4002EF0000E026E1A0E016E000E046E010EF2
:1068E400036E0EEC38F0030E4B6EB0EF34F0DF0E97
:1068F4004724F66EF76A7E0EF7220800F550076EFD
:10690400086A0FEC2EF0000E026E1B0E016E000ED4
:10691400046E010E036E0EEC38F0000E4B6EB0EFF9
:1069240034F04B500A6E0B6A0B50000AD8B49DEF3A
:1069340034F08FEF34F00A50000AD8B42BEF34F05F
:10694400010AD8B445EF34F0030AD8B45FEF34F049
:10695400010AD8B479EF34F08FEF34F01200000E4E
:10696400026E000E016E36EC2EF001C04EF002C035
:106974004FF0000E4FBEFF0E506E516E4E50231856
:106984000FE14F5024180CE15050251809E15150E3
:106994002618D8B4D0EF34F0D2EF34F0C4EF35F089
:1069A400000E106E010E0F6E000E126E070E116EA9
:1069B4006FEC2DF0F30E0F6E7F0E106E5EEC2EF06A
:1069C400FF0E116E030E126E000E136E000E146E87
:1069D4004EC001F04FC002F050C003F051C004F0AB
:1069E400C80E056E000E066E000E076E000E086ED1
:1069F40075EC2FF001C00DF002C00EF003C00FF0D3
:106A040004C010F07BEC30F00DC027F00EC028F06D
:106A14000FC029F010C02AF0640E116E000E126E21
:106A2400000E136E000E146E27C00DF028C00EF079
:106A340029C00FF02AC010F07BEC30F00DC01AF022
:106A44000EC01BF00FC01CF010C01DF00A0E1E6E0D
:106A5400000E1F6E000E206E000E216EE6EC2FF06D
:106A64001A50300FB6EC2CF0FF0E116E030E126E9E
:106A7400000E136E000E146E4EC001F04FC002F0F3
:106A840050C003F051C004F0C80E056E000E066E2F
:106A9400000E076E000E086E75EC2FF001C00DF0AD
:106AA40002C00EF003C00FF004C010F07BEC30F015
:106AB4000DC027F00EC028F00FC029F010C02AF036
:106AC4000A0E116E000E126E000E136E000E146E7E
:106AD40027C00DF028C00EF029C00FF02AC010F016
:106AE4007BEC30F00DC01AF00EC01BF00FC01CF090
:106AF40010C01DF00A0E1E6E000E1F6E000E206EDA
:106B0400000E216EE6EC2FF01A50300FB6EC2CF08C
:106B1400FF0E116E030E126E000E136E000E146E35
:106B24004EC001F04FC002F050C003F051C004F059
:106B3400C80E056E000E066E000E076E000E086E7F
:106B440075EC2FF001C00DF002C00EF003C00FF081
:106B540004C010F07BEC30F00DC01AF00EC01BF036
:106B64000FC01CF010C01DF00A0E1E6E000E1F6E2A
:106B7400000E206E000E216EE6EC2FF01A50300F3E
:106B8400B6EC2CF012003EC029F03FC02AF02B6A6C
:106B94002C6A29502A102B102C10D8A4D4EF35F0CD
:106BA400D6EF35F0D8EF35F0E4EF36F0030E236E70
:106BB400640E116E000E126E000E136E000E146E33
:106BC40029C00DF02AC00EF02BC00FF02CC010F01D
:106BD4007BEC30F00DC01AF00EC01BF00FC01CF09F
:106BE40010C01DF00A0E1E6E000E1F6E000E206EE9
:106BF400000E216EE6EC2FF01A50B4EC2EF0020ECB
:106C0400236EE80E116E030E126E000E136E000E4C
:106C1400146E29C00DF02AC00EF02BC00FF02CC04A
:106C240010F07BEC30F00DC01AF00EC01BF00FC05A
:106C34001CF010C01DF0060E1E6E000E1F6E000E1E
:106C4400206E000E216EE6EC2FF01A50B4EC2EF0FC
:106C5400010E236E700E116E170E126E000E136E5F
:106C6400000E146E29C00DF02AC00EF02BC00FF0D8
:106C74002CC010F07BEC30F00DC01AF00EC01BF0ED
:106C84000FC01CF010C01DF00A0E1E6E000E1F6E09
:106C9400000E206E000E216EE6EC2FF01A50B4ECBC
:106CA4002EF0000E236E600E116EEA0E126E000EB0
:106CB400136E000E146E29C00DF02AC00EF02BC006
:106CC4000FF02CC010F07BEC30F00DC01AF00EC0A9
:106CD4001BF00FC01CF010C01DF00A0E1E6E000E3B
:106CE4001F6E000E206E000E216EE6EC2FF01A507F
:106CF400B4EC2EF0FBEC33F0000E256E000E266E85
:106D0400000E276E000E286E25C001F026C002F08A
:106D140027C003F028C004F0000E056E000E066EB6
:106D2400160E076E430E086E86EC31F0D8A09DEF68
:106D340036F09FEF36F0A1EF36F0D4EF36F025C0F1
:106D440001F026C002F027C003F028C004F0000EB2
:106D5400056E000E066E800E076E3F0E086E0FEC79
:106D64003DF001C025F002C026F003C027F004C0A6
:106D740028F025C001F026C002F027C003F028C087
:106D840004F0000E056E000E066E160E076E430E1E
:106D9400086E86EC31F0D8A0D2EF36F0D4EF36F09E
:106DA400A1EF36F02906000E2A5A2B5A2C5A2950E4
:106DB4002A102B102C10D8A4E2EF36F0E4EF36F0B2
:106DC400D8EF35F0E9EC2CF0120002BEF5EF36F006
:106DD400025007E1080E015CD8B0F3EF36F0F5EF8E
:106DE40036F01FEF37F003500410D8B4FCEF36F040
:106DF400FEEF36F00EEF37F001C005F0010E066E1F
:106E0400052A07EF37F0D8900636052E05EF37F040
:106E1400065092120DEF38F001C005F0010E066E17
:106E2400052A17EF37F0D8900636052E15EF37F000
:106E34000650FF0A92160DEF38F002BE2DEF37F020
:106E4400025007E1100E015CD8B02BEF37F02DEFA4
:106E540037F05BEF37F003500410D8B434EF37F059
:106E640036EF37F048EF37F001C005F0F80E05268D
:106E7400010E066E052A41EF37F0D8900636052E2E
:106E84003FEF37F0065093120DEF38F001C005F0D4
:106E9400F80E0526010E066E052A53EF37F0D8903A
:106EA4000636052E51EF37F00650FF0A93160DEF04
:106EB40038F002BE69EF37F0025007E1180E015CAA
:106EC400D8B067EF37F069EF37F097EF37F003503A
:106ED4000410D8B470EF37F072EF37F084EF37F066
:106EE40001C005F0F00E0526010E066E052A7DEFA1
:106EF40037F0D8900636052E7BEF37F00650941203
:106F04000DEF38F001C005F0F00E0526010E066EF7
:106F1400052A8FEF37F0D8900636052E8DEF37F01F
:106F24000650FF0A94160DEF38F002BEA5EF37F0B5
:106F3400025007E1200E015CD8B0A3EF37F0A5EFB3
:106F440037F0D3EF37F003500410D8B4ACEF37F078
:106F5400AEEF37F0C0EF37F001C005F0E80E0526BC
:106F6400010E066E052AB9EF37F0D8900636052EC5
:106F7400B7EF37F0065095120DEF38F001C005F069
:106F8400E80E0526010E066E052ACBEF37F0D890E1
:106F94000636052EC9EF37F00650FF0A95160DEF99
:106FA40038F002BEE1EF37F0025007E1280E015C31
:106FB400D8B0DFEF37F0E1EF37F00DEF38F00350E2
:106FC4000410D8B4E8EF37F0EAEF37F0FCEF37F00D
:106FD40001C005F0E00E0526010E066E052AF5EF48
:106FE40037F0D8900636052EF3EF37F00650961298
:106FF4000DEF38F001C005F0E00E0526010E066E17
:10700400052A07EF38F0D8900636052E05EF38F03C
:107014000650FF0A9616120002BE1CEF38F002500A
:1070240007E1080E015CD8B01AEF38F01CEF38F015
:1070340046EF38F003500410D8B423EF38F025EFAE
:1070440038F035EF38F001C005F0010E066E052A60
:107054002EEF38F0D8900636052E2CEF38F0065077
:10706400801234EF39F001C005F0010E066E052AD6
:107074003EEF38F0D8900636052E3CEF38F0065037
:10708400FF0A801634EF39F002BE54EF38F0025094
:1070940007E1100E015CD8B052EF38F054EF38F02D
:1070A40082EF38F0F80E0126FF0E0222035004107E
:1070B400D8B45FEF38F061EF38F071EF38F001C009
:1070C40005F0010E066E052A6AEF38F0D8900636F0
:1070D400052E68EF38F00650811234EF39F001C004
:1070E40005F0010E066E052A7AEF38F0D8900636C0
:1070F400052E78EF38F00650FF0A811634EF39F088
:1071040002BE90EF38F0025007E1180E015CD8B0CF
:107114008EEF38F090EF38F0BEEF38F0F00E012625
:10712400FF0E022203500410D8B49BEF38F09DEFF9
:1071340038F0ADEF38F001C005F0010E066E052AF7
:10714400A6EF38F0D8900636052EA4EF38F0065096
:10715400821234EF39F001C005F0010E066E052AE3
:10716400B6EF38F0D8900636052EB4EF38F0065056
:10717400FF0A821634EF39F002BECCEF38F0025029
:1071840007E1200E015CD8B0CAEF38F0CCEF38F03C
:10719400FAEF38F0E80E0126FF0E02220350041025
:1071A400D8B4D7EF38F0D9EF38F0E9EF38F001C0B0
:1071B40005F0010E066E052AE2EF38F0D890063687
:1071C400052EE0EF38F00650831234EF39F001C099
:1071D40005F0010E066E052AF2EF38F0D890063657
:1071E400052EF0EF38F00650FF0A831634EF39F01D
:1071F40002BE08EF39F0025007E1280E015CD8B056
:1072040006EF39F008EF39F034EF39F0E00E0126DB
:10721400FF0E022203500410D8B413EF39F015EF17
:1072240039F025EF39F001C005F0010E066E052A8C
:107234001EEF39F0D8900636052E1CEF39F00650B3
:10724400841234EF39F001C005F0010E066E052AF0
:107254002EEF39F0D8900636052E2CEF39F0065073
:10726400FF0A8416120008EC32F02F502D6E2E6A9D
:1072740077EC2CF02D50011809E12E500218D8B4E7
:1072840046EF39F048EF39F009EF3BF077EC2CF09A
:10729400DFEF3AF0030E836E800EA7EC2CF0170E8E
:1072A4000F6E7F0E106E5EEC2EF0C00EA7EC2CF06D
:1072B400000E106E000E0F6E000E126E070E116E91
:1072C4006FEC2DF0730E0F6E7F0E106E5EEC2EF0D1
:1072D400000E106E010E0F6E000E126E000E116E77
:1072E4006FEC2DF0D40E0F6E7F0E106E5EEC2EF050
:1072F400BE0E3A6E000E3B6E000E3C6E000E3D6EEE
:10730400460E3F6E500E3E6E09EF3BF0800EA7EC2A
:107314002CF07D0E0F6E7F0E106E5EEC2EF0C00E04
:10732400A7EC2CF0000E106E000E0F6E000E126E05
:10733400070E116E6FEC2DF0690E0F6E7F0E106E3E
:107344005EEC2EF0000E106E010E0F6E000E126E2B
:10735400000E116E6FEC2DF0CC0E0F6E7F0E106EC2
:107364005EEC2EF0960E3A6E000E3B6E000E3C6EF6
:10737400000E3D6E3A0E3F6E980E3E6E09EF3BF0E6
:10738400800EA7EC2CF0860E0F6E7F0E106E5EEC56
:107394002EF0C00EA7EC2CF0000E106E000E0F6E37
:1073A400000E126E070E116E6FEC2DF0410E0F6E73
:1073B4007F0E106E5EEC2EF0000E106E010E0F6E3E
:1073C400000E126E000E116E6FEC2DF0C40E0F6ED7
:1073D4007F0E106E5EEC2EF06E0E3A6E000E3B6E5B
:1073E400000E3C6E000E3D6E320E3F6EC80E3E6EB9
:1073F40009EF3BF0800EA7EC2CF0220E0F6E7F0EEF
:10740400106E5EEC2EF0C00EA7EC2CF0000E106E89
:10741400000E0F6E000E126E070E116E6FEC2DF043
:10742400550E0F6E7F0E106E5EEC2EF0000E106E79
:10743400010E0F6E000E126E000E116E6FEC2DF029
:10744400AA0E0F6E7F0E106E5EEC2EF01E0E3A6EBC
:10745400000E3B6E000E3C6E000E3D6E070E3F6E3E
:10746400D00E3E6E09EF3BF0800EA7EC2CF02D0EF3
:107474000F6E7F0E106E5EEC2EF0C00EA7EC2CF09B
:10748400000E106E000E0F6E000E126E070E116EBF
:107494006FEC2DF05F0E0F6E7F0E106E5EEC2EF013
:1074A400000E106E010E0F6E000E126E000E116EA5
:1074B4006FEC2DF0980E0F6E7F0E106E5EEC2EF0BA
:1074C400320E3A6E000E3B6E000E3C6E000E3D6EA8
:1074D4000F0E3F6EA00E3E6E09EF3BF0800EA7EC40
:1074E4002CF08F0E0F6E7F0E106E5EEC2EF0C00E21
:1074F400A7EC2CF0000E106E000E0F6E000E126E34
:10750400070E116E6FEC2DF04B0E0F6E7F0E106E8A
:107514005EEC2EF0000E106E010E0F6E000E126E59
:10752400000E116E6FEC2DF0BC0E0F6E7F0E106E00
:107534005EEC2EF0780E3A6E000E3B6E000E3C6E42
:10754400000E3D6E270E3F6E100E3E6E09EF3BF0AF
:10755400000E086E020E076E41EC2FF0800EA7ECB1
:107564002CF0F90E0F6E7E0E106E5EEC2EF0C00E37
:10757400A7EC2CF0000E106E010E0F6E000E126EB2
:10758400000E116E6FEC2DF0E40E0F6E7F0E106E78
:107594005EEC2EF0C5EC35F0010EA7EC2CF00A0ED3
:1075A4000F6E7F0E106E5EEC2EF0000E086E020E53
:1075B400076E0DEC2FF009EF3BF0AAEC2FF02D6EC7
:1075C4002E6A2E50000AD8B4EAEF3AF009EF3BF0E5
:1075D4002D50410AD8B470EF3AF0050AD8B4C2EF7E
:1075E40039F0080AD8B488EF39F01E0AD8B4FCEF91
:1075F40039F0010AD8B436EF3AF0060AD8B44CEFA1
:1076040039F00D0AD8B4AAEF3AF009EF3BF01200B2
:1076140028EC2DF0466E4650D8B413EF3BF015EF2E
:107624003BF011EF3CF0E8EF3BF0800EA7EC2CF0C0
:10763400DC0E0F6E7F0E106E5EEC2EF0C00EA7EC0B
:107644002CF0D40E0F6E7F0E106E5EEC2EF0BE0E7C
:107654003A6E000E3B6E000E3C6E000E3D6E11EF56
:107664003CF0800EA7EC2CF0F90E0F6E7F0E106E1E
:107674005EEC2EF0C00EA7EC2CF0CC0E0F6E7F0E3D
:10768400106E5EEC2EF0960E3A6E000E3B6E000EFF
:107694003C6E000E3D6E11EF3CF0800EA7EC2CF01A
:1076A400EC0E0F6E7F0E106E5EEC2EF0C00EA7EC8B
:1076B4002CF0A10E0F6E7F0E106E5EEC2EF06E0E8F
:1076C4003A6E000E3B6E000E3C6E000E3D6E11EFE6
:1076D4003CF0800EA7EC2CF0B30E0F6E7F0E106EF4
:1076E4005EEC2EF0C00EA7EC2CF0AA0E0F6E7F0EEF
:1076F400106E5EEC2EF01E0E3A6E000E3B6E000E07
:107704003C6E000E3D6E11EF3CF0800EA7EC2CF0A9
:107714002D0E0F6E7F0E106E5EEC2EF0C00EA7ECD9
:107724002CF0980E0F6E7F0E106E5EEC2EF0320E63
:107734003A6E000E3B6E000E3C6E000E3D6E11EF75
:107744003CF0800EA7EC2CF08F0E0F6E7F0E106EA7
:107754005EEC2EF0C00EA7EC2CF0BC0E0F6E7F0E6C
:10776400106E5EEC2EF0780E3A6E000E3B6E000E3C
:107774003C6E000E3D6E11EF3CF0800EA7EC2CF039
:10778400F90E0F6E7E0E106E5EEC2EF0C00EA7EC9E
:107794002CF0000E106E010E0F6E000E126E000E15
:1077A400116E6FEC2DF0E40E0F6E7F0E106E5EEC1A
:1077B4002EF0C5EC35F0010EA7EC2CF00A0E0F6E7E
:1077C4007F0E106E5EEC2EF011EF3CF046502D6EE5
:1077D4002E6A2E50000AD8B4F2EF3BF011EF3CF0C1
:1077E4002D50420AD8B4A3EF3BF0060AD8B44FEFA9
:1077F4003BF0080AD8B433EF3BF01E0AD8B46BEF61
:107804003BF0010AD8B487EF3BF0060AD8B417EF6F
:107814003BF00D0AD8B4BFEF3BF011EF3CF0000E83
:10782400026E000E016E36EC2EF001C04EF002C066
:107834004FF0000E4FBEFF0E506E516E670E84EC7B
:107844002CF03A0E84EC2CF0200E84EC2CF0FF0E7D
:10785400116E030E126E000E136E000E146E4EC0E7
:1078640001F04FC002F050C003F051C004F0C80E44
:10787400056E000E066E000E076E000E086E75ECA7
:107884002FF001C00DF002C00EF003C00FF004C0D1
:1078940010F07BEC30F00DC02FF00EC030F00FC0B4
:1078A40031F010C032F0640E116E000E126E000E34
:1078B400136E000E146E2FC00DF030C00EF031C0E8
:1078C4000FF032C010F07BEC30F00DC01AF00EC097
:1078D4001BF00FC01CF010C01DF00A0E1E6E000E2F
:1078E4001F6E000E206E000E216EE6EC2FF01A5073
:1078F400300F84EC2CF0FF0E116E030E126E000E8E
:10790400136E000E146E4EC001F04FC002F050C052
:1079140003F051C004F0C80E056E000E066E000E92
:10792400076E000E086E75EC2FF001C00DF002C05A
:107934000EF003C00FF004C010F07BEC30F00DC06B
:107944002FF00EC030F00FC031F010C032F00A0E2C
:10795400116E000E126E000E136E000E146E2FC008
:107964000DF030C00EF031C00FF032C010F07BECDF
:1079740030F00DC01AF00EC01BF00FC01CF010C088
:107984001DF00A0E1E6E000E1F6E000E206E000EFD
:10799400216EE6EC2FF01A50300F84EC2CF0FF0E21
:1079A400116E030E126E000E136E000E146E4EC096
:1079B40001F04FC002F050C003F051C004F0C80EF3
:1079C400056E000E066E000E076E000E086E75EC56
:1079D4002FF001C00DF002C00EF003C00FF004C080
:1079E40010F07BEC30F00DC01AF00EC01BF00FC08D
:1079F4001CF010C01DF00A0E1E6E000E1F6E000E4D
:107A0400206E000E216EE6EC2FF01A50300F84EC3D
:107A14002CF00A0E84EC2CF012000450800B0D6E36
:107A2400045004240F6E03AE1AEF3DF01CEF3DF03A
:107A34001DEF3DF00F800F50D8B423EF3DF025EF3C
:107A44003DF03AEF3DF00F28D8A42BEF3DF02DEF99
:107A54003DF035EF3DF0000E016E000E026E000E9B
:107A6400036E000E046E038E000E046E42EF3DF0B2
:107A7400000E016E000E026E000E036E000E046E08
:107A84000850800B0E6E0D500E18D8B44CEF3DF01C
:107A94004EEF3DF04FEF3DF00D8C085008240E6E74
:107AA40007AE57EF3DF059EF3DF05AEF3DF00E8031
:107AB4000E50D8B460EF3DF062EF3DF077EF3DF04B
:107AC4000E28D8A468EF3DF06AEF3DF072EF3DF068
:107AD400000E056E000E066E000E076E000E086E98
:107AE400078E000E086E7FEF3DF0000E056E000E4F
:107AF400066E000E076E000E086E0F500E5CD8B0B6
:107B040086EF3DF088EF3DF0AFEF3DF00DAC8DEF2B
:107B14003DF08FEF3DF091EF3DF0800E0D1A0FC058
:107B240010F00EC00FF010C00EF001C010F005C030
:107B340001F010C005F002C010F006C002F010C041
:107B440006F003C010F007C003F010C007F004C033
:107B540010F008C004F010C008F0000E106E0F50B2
:107B64000EC009F00A6A095E000E0A5A0ABEC4EF82
:107B74003DF00A5009E11A0E095CD8A0C4EF3DF0AB
:107B8400C6EF3DF0FDEF3DF001500210031004106C
:107B9400D8A4CFEF3DF0D2EF3DF0010ED3EF3DF08E
:107BA400000E106E000E016E000E026E000E036ECB
:107BB400000E046E0EC00FF006EF3EF010A0E5EFCD
:107BC4003DF0E7EF3DF0EDEF3DF0D89010300109C6
:107BD400106EEFEF3DF0D890103201A0F4EF3DF0BD
:107BE400F6EF3DF0F7EF3DF0108E0434043203322B
:107BF400023201320F2A0E500F5CD8A004EF3EF07F
:107C040006EF3EF0E0EF3DF00DBC0BEF3EF00DEF64
:107C14003EF04DEF3EF00F50D8A413EF3EF015EFB9
:107C24003EF01FEF3EF0000E016E000E026E000EDD
:107C3400036E000E046E6EEF3FF0055001260650F1
:107C44000222075003220850042204A02CEF3EF025
:107C54002EEF3EF0DAEF3EF010A033EF3EF035EFBA
:107C64003EF03BEF3EF0D89010300109106E3DEF2E
:107C74003EF0D890103201A042EF3EF044EF3EF0C7
:107C840045EF3EF0108E04340432033202320132E6
:107C94000F2ADAEF3EF00550015C065002580750F7
:107CA40003580450800A096E0850800A0958D8B055
:107CB4005EEF3EF060EF3EF08BEF3EF00150055C6E
:107CC400096E025006580A6E035007580B6E045092
:107CD40008580C6EFF0E0924016EFF0E0A20026E76
:107CE400FF0E0B20036EFF0E0C20046E800E0D1A87
:107CF400106C1050D8A481EF3EF083EF3EF093EF68
:107D04003EF0010E0126000E02220322042293EF0C
:107D14003EF00550015E0650025A0750035A0850BF
:107D2400045A0150021003100410D8A49CEF3EF032
:107D34009EEF3EF0D3EF3EF01050D8A4A4EF3EF0F7
:107D4400A6EF3EF0D3EF3EF0000E016E000E026E81
:107D5400000E036E000E046E6EEF3FF0D8900136F5
:107D640002360336043610AEBAEF3EF0BCEF3EF0F6
:107D7400BDEF3EF0018010A0C2EF3EF0C4EF3EF034
:107D8400C8EF3EF0D8801036CAEF3EF0D8901036D7
:107D94000F50D8B4D0EF3EF0D2EF3EF0D3EF3EF028
:107DA4000F0603AED8EF3EF0DAEF3EF0B0EF3EF050
:107DB400000E0E6E10AEE1EF3EF0E3EF3EF0FBEF8F
:107DC4003EF010C009F07F0E0916D8B4ECEF3EF077
:107DD400EEEF3EF0F2EF3EF0010E0E6EFBEF3EF0E2
:107DE40001A0F7EF3EF0F9EF3EF0FBEF3EF0EEEFCF
:107DF4003EF00E50D8B401EF3FF003EF3FF02EEF0A
:107E04003FF0010E0126000E02220322042204A0E8
:107E14000EEF3FF010EF3FF02EEF3FF001C009F0FE
:107E240002C00AF003C00BF004C00CF00C340C3296
:107E34000B320A32093209C001F00AC002F00BC049
:107E440003F00CC004F00F28D8B42BEF3FF02DEF53
:107E54003FF02EEF3FF00F2A0F28D8B434EF3FF055
:107E640036EF3FF03EEF3FF00F50D8A43CEF3FF029
:107E74003EEF3FF050EF3FF0000E016E000E026E39
:107E8400000E036E000E046E0F50D8A44CEF3FF0AA
:107E94004EEF3FF050EF3FF0000E0D6E0FA055EF88
:107EA4003FF057EF3FF05AEF3FF0038E5BEF3FF0A8
:107EB400039ED8900F30046E0DAE63EF3FF065EF74
:107EC4003FF066EF3FF0048E01C001F002C002F003
:107ED40003C003F004C004F01200003F065B4F66C9
:107EE4006D7D077F6F777C395E7971554C445253B1
:107EF4005841425973456E6368656E646F206F2004
:107F0400436F63686F00436F63686F2043686569FC
:107F14006F2100434156414C4F53202020004741DC
:107F24004C494E4841532020004F56454C4841533C
:107F3400202000546563684661726D200020204C47
:107F44003A3131304B670020204C3A3132304B67A4
:107F54000020204C3A2033304B670020204C3A203C
:107F640035304B670020204C3A3135304B670020C8
:107F7400204C3A3139304B6700564143415320205D
:107F84002000504F52434F53202000544F55524F1E
:107F9400532020005174643A20313020005174641D
:107FA4003A20343020005174643A2039302000479C
:107FB400414C494E484153005174643A20382000E2
:107FC4005174643A203430005174643A20313500DD
:107FD4005174643A20323500434156414C4F5300AA
:107FE4004167756172646500504F52434F530020DE
:0C7FF400204B673A005641434153000007
:020000040020DA
:08000000FFFFFFFFFFFFFFFF00
:020000040030CA
:0E000000FF027100FF8380FF0FC00FE00F4072
:00000001FF
